:020000040802F0
:1000000000000220C9330208112E0208352E020812
:100010003B2E0208412E0208472E02080000000075
:100020000000000000000000000000004D2E02084B
:100030004F2E020800000000512E0208532E020825
:100040001934020819340208193402081934020854
:100050001934020819340208193402081934020844
:10006000572E0208193402085D2E020819340208BE
:100070001934020819340208193402081934020824
:100080001934020819340208193402081934020814
:10009000193402081934020819340208632E0208C0
:1000A00019340208193402081934020819340208F4
:1000B0006D2E0208792E020819340208852E0208D6
:1000C000912E02089D2E0208A92E0208193402085A
:1000D00019340208B52E020819340208193402082E
:1000E000193402081934020819340208C12E020812
:1000F00019340208193402081934020819340208A4
:10010000193402081934020819340208CD2E0208E5
:100110001934020819340208193402081934020883
:100120001934020819340208D92E020819340208B9
:100130001934020819340208193402081934020863
:10014000193402081934020819340208E52E02088D
:100150001934020819340208F12E02081934020871
:100160001934020819340208193402081934020833
:10017000193402081934020819340208000000007A
:080180001934020819340208C9
:1001900010B5054C237833B9044B13B10448AFF3C1
:1001A00000800123237010BD900300200000000098
:1001B0006C64030808B5034B1BB103490348AFF354
:1001C000008008BD00000000940300206C64030858
:1001D00010F8012B11F8013B012A28BF9A42F7D0F1
:1001E000D01A70470000000000000000000000006E
:1001F00001F0FF01102A2BDB10F0070F08D010F8D8
:10020000013B013A8B422DD010F0070F42B3F6D1DB
:10021000F0B441EA012141EA014122F007047FF0F4
:1002200000070023F0E80256083C85EA010586EA4B
:10023000010685FA47F5A3FA87F586FA47F6A5FA87
:1002400087F68EB9EED1F0BC01F0FF0102F0070293
:1002500032B110F8013B013A83EA010313B1F8D13E
:100260000020704701387047002D06BF354603381F
:10027000073815F0010F07D1013015F4807F02BF58
:10028000013015F4C03F0130F0BC0138704700BFA9
:10029000034613F8012B002AFBD1181A01387047C6
:1002A00081F0004102E000BF83F0004330B54FEA27
:1002B00041044FEA430594EA050F08BF90EA020F94
:1002C0001FBF54EA000C55EA020C7FEA645C7FEA27
:1002D000655C00F0E2804FEA5454D4EB5555B8BF4A
:1002E0006D420CDD2C4480EA020281EA030382EABB
:1002F000000083EA010180EA020281EA0303362D4D
:1003000088BF30BD11F0004F4FEA01314FF4801C1F
:100310004CEA113102D0404261EB410113F0004F31
:100320004FEA03334CEA133302D0524263EB4303E8
:1003300094EA050F00F0A780A4F10104D5F1200E86
:100340000DDB02FA0EFC22FA05F2801841F10001E1
:1003500003FA0EF2801843FA05F359410EE0A5F1B5
:1003600020050EF1200E012A03FA0EFC28BF4CF0E6
:10037000020C43FA05F3C01851EBE37101F000459C
:1003800007D54FF0000EDCF1000C7EEB00006EEBA9
:100390000101B1F5801F1BD3B1F5001F0CD3490833
:1003A0005FEA30004FEA3C0C04F101044FEA44528A
:1003B00012F5800F80F09A80BCF1004F08BF5FEA11
:1003C000500C50F1000041EB045141EA050130BDF1
:1003D0005FEA4C0C404141EB0101013C28BFB1F503
:1003E000801FE9D291F0000F04BF01460020B1FA4E
:1003F00081F308BF2033A3F10B03B3F120020CDA21
:100400000C3208DD02F1140CC2F10C0201FA0CF0FE
:1004100021FA02F10CE002F11402D8BFC2F1200C63
:1004200001FA02F120FA0CFCDCBF41EA0C01904019
:10043000E41AA2BF01EB0451294330BD6FEA040462
:100440001F3C1CDA0C340EDC04F11404C4F120024D
:1004500020FA04F001FA02F340EA030021FA04F35F
:1004600045EA030130BDC4F10C04C4F1200220FAB6
:1004700002F001FA04F340EA0300294630BD21FAF4
:1004800004F0294630BD94F0000F83F4801306BFBA
:1004900081F480110134013D4EE77FEA645C18BFAE
:1004A0007FEA655C29D094EA050F08BF90EA020F45
:1004B00005D054EA000C04BF1946104630BD91EA3D
:1004C000030F1EBF0021002030BD5FEA545C05D140
:1004D0004000494128BF41F0004130BD14F580047F
:1004E0003CBF01F5801130BD01F0004545F0FE41F3
:1004F00041F470014FF0000030BD7FEA645C1ABF28
:10050000194610467FEA655C1CBF0B46024650EA5E
:10051000013406BF52EA033591EA030F41F400218A
:1005200030BD00BF90F0000F04BF0021704730B510
:100530004FF4806404F132044FF000054FF00001E5
:1005400050E700BF90F0000F04BF0021704730B5A6
:100550004FF4806404F1320410F0004548BF40427B
:100560004FF000013EE700BF42004FEAE2014FEAD0
:1005700031014FEA02701FBF12F07F4393F07F4FAB
:1005800081F06051704732F07F4208BF704793F0AE
:100590007F4F04BF41F40021704730B54FF46074C1
:1005A00001F0004521F000411CE700BF50EA0102C4
:1005B00008BF704730B54FF000050AE050EA01026D
:1005C00008BF704730B511F0004502D5404261EBDD
:1005D00041014FF4806404F132045FEA915C3FF41E
:1005E000D8AE4FF003025FEADC0C18BF03325FEABB
:1005F000DC0C18BF033202EBDC02C2F1200300FA6C
:1006000003FC20FA02F001FA03FE40EA0E0021FA90
:1006100002F11444BDE600BF70B54FF0FF0C4CF47E
:10062000E06C1CEA11541DBF1CEA135594EA0C0F30
:1006300095EA0C0F00F0DEF82C4481EA030621EA6B
:100640004C5123EA4C5350EA013518BF52EA0335A6
:1006500041F4801143F4801338D0A0FB02CE4FF058
:100660000005E1FB02E506F00042E0FB03E54FF088
:100670000006E1FB03569CF0000F18BF4EF0010E80
:10068000A4F1FF04B6F5007F64F5407404D25FEA7C
:100690004E0E6D4146EB060642EAC62141EA55512F
:1006A0004FEAC52040EA5E504FEACE2EB4F1FD0C71
:1006B00088BFBCF5E06F1ED8BEF1004F08BF5FEAEF
:1006C000500E50F1000041EB045170BD06F00046A1
:1006D00046EA010140EA020081EA0301B4EB5C044E
:1006E000C2BFD4EB0C0541EA045170BD41F4801146
:1006F0004FF0000E013C00F3AB8014F1360FDEBF6B
:10070000002001F0004170BDC4F10004203C35DA46
:100710000C341BDC04F11404C4F1200500FA05F3C9
:1007200020FA04F001FA05F240EA020001F000426A
:1007300021F0004110EBD37021FA04F642EB0601E0
:100740005EEA430E08BF20EAD37070BDC4F10C040A
:10075000C4F1200500FA04F320FA05F001FA04F2CE
:1007600040EA020001F0004110EBD37041F10001BA
:100770005EEA430E08BF20EAD37070BDC4F12005C5
:1007800000FA05F24EEA020E20FA04F301FA05F22D
:1007900043EA020321FA04F001F0004121FA04F2D5
:1007A00020EA020000EBD3705EEA430E08BF20EAA5
:1007B000D37070BD94F0000F0FD101F000464000DF
:1007C00041EB010111F4801F08BF013CF7D041EA61
:1007D000060195F0000F18BF704703F00046520065
:1007E00043EB030313F4801F08BF013DF7D043EA36
:1007F0000603704794EA0C0F0CEA135518BF95EAEC
:100800000C0F0CD050EA410618BF52EA4306D1D172
:1008100081EA030101F000414FF0000070BD50EA91
:10082000410606BF1046194652EA430619D094EA1B
:100830000C0F02D150EA013613D195EA0C0F05D105
:1008400052EA03361CBF104619460AD181EA030159
:1008500001F0004141F0FE4141F470014FF0000011
:1008600070BD41F0FE4141F4780170BD70B54FF0AC
:10087000FF0C4CF4E06C1CEA11541DBF1CEA13552C
:1008800094EA0C0F95EA0C0F00F0A7F8A4EB05040E
:1008900081EA030E52EA03354FEA013100F0888005
:1008A0004FEA03334FF0805545EA131343EA1263CE
:1008B0004FEA022245EA111545EA10654FEA002683
:1008C0000EF000419D4208BF964244F1FD0404F53C
:1008D000407402D25B084FEA3202B61A65EB030598
:1008E0005B084FEA32024FF480104FF4002CB6EB55
:1008F000020E75EB030E22BFB61A754640EA0C00D5
:100900005B084FEA3202B6EB020E75EB030E22BF14
:10091000B61A754640EA5C005B084FEA3202B6EB55
:10092000020E75EB030E22BFB61A754640EA9C0014
:100930005B084FEA3202B6EB020E75EB030E22BFE4
:10094000B61A754640EADC0055EA060E18D04FEAA2
:10095000051545EA16754FEA06164FEAC30343EA42
:1009600052734FEAC2025FEA1C1CC0D111F4801F0F
:100970000BD141EA00014FF000004FF0004CB6E708
:1009800011F4801F04BF01430020B4F1FD0C88BFA7
:10099000BCF5E06F3FF6AFAEB5EB030C04BFB6EBB2
:1009A000020C5FEA500C50F1000041EB045170BDA5
:1009B0000EF0004E4EEA113114EB5C04C2BFD4EBD2
:1009C0000C0541EA045170BD41F480114FF0000E56
:1009D000013C90E645EA060E8DE60CEA135594EAD2
:1009E0000C0F08BF95EA0C0F3FF43BAF94EA0C0FD5
:1009F0000AD150EA01347FF434AF95EA0C0F7FF44A
:100A000025AF104619462CE795EA0C0F06D152EA9D
:100A100003353FF4FDAE1046194622E750EA410681
:100A200018BF52EA43067FF4C5AE50EA41047FF492
:100A30000DAF52EA43057FF4EBAE12E74FF0FF3CF7
:100A400006E000BF4FF0010C02E000BF4FF0010CC8
:100A50004DF804CD4FEA410C7FEA6C5C4FEA430C41
:100A600018BF7FEA6C5C1BD001B050EA410C0CBF90
:100A700052EA430C91EA030F02BF90EA020F0020F2
:100A8000704710F1000F91EA030F58BF994208BF59
:100A900090422CBFD8176FEAE37040F00100704716
:100AA0004FEA410C7FEA6C5C02D150EA013C07D16D
:100AB0004FEA430C7FEA6C5CD6D152EA033CD3D0B8
:100AC0005DF8040B704700BF8446104662468C46B2
:100AD0001946634600E000BF01B5FFF7B7FF0028E5
:100AE00048BF10F1000F01BD4DF808EDFFF7F4FF0E
:100AF0000CBF012000205DF808FB00BF4DF808ED99
:100B0000FFF7EAFF34BF012000205DF808FB00BFBB
:100B10004DF808EDFFF7E0FF94BF012000205DF8DD
:100B200008FB00BF4DF808EDFFF7CEFF94BF012092
:100B300000205DF808FB00BF4DF808EDFFF7C4FF8B
:100B400034BF012000205DF808FB00BF4FEA410CD4
:100B50007FEA6C5C02D150EA013C0AD14FEA430CB7
:100B60007FEA6C5C02D152EA033C02D14FF00000F4
:100B700070474FF0010070474FEA410212F5001232
:100B800015D211D56FF47873B3EB625212D94FEAD4
:100B9000C12343F0004343EA505311F0004F23FABE
:100BA00002F018BF404270474FF00000704750EA13
:100BB000013005D111F0004008BF6FF000407047D0
:100BC0004FF00000704700BF4A0011D212F500122A
:100BD00011D20DD56FF47873B3EB62520ED44FEA95
:100BE000C12343F0004343EA505323FA02F0704715
:100BF0004FF00000704750EA013002D14FF0FF3053
:100C000070474FF0000070474FEA4102B2F1E043F5
:100C100024BFB3F5001CDCF1FE5C0DD901F0004CE3
:100C20004FEAC0024CEA5070B2F1004F40EB830033
:100C300008BF20F00100704711F0804F21D113F15F
:100C40003872BCBF01F00040704741F480114FEA98
:100C50005252C2F11802C2F1200C10FA0CF320FA21
:100C600002F018BF40F001004FEAC1234FEAD3233E
:100C700003FA0CFC40EA0C0023FA02F34FEA4303A8
:100C8000CCE77FEA625307D150EA01331EBF4FF031
:100C9000FE4040F44000704701F0004040F0FE404C
:100CA00040F40000704700BF53B94AB9002908BF9B
:100CB00000281CBF4FF0FF314FF0FF3000F0BEB9ED
:100CC000ADF1080C6DE904CE00F03CF8DDF804E06D
:100CD000DDE9022304B0704738B500220023044642
:100CE0000D46FFF70BFF28B920462946BDE83840DE
:100CF00000F00AB8204605F1004100F005F8404236
:100D000061EB410138BD00BFD0B50C4B0022064657
:100D10000F46FFF781FCFFF757FF0446FFF702FC81
:100D2000074B0022FFF778FC02460B463046394657
:100D3000FFF7BAFAFFF748FF2146D0BD0000F03DAB
:100D40000000F0412DE9F047089D8E460446884694
:100D5000002B4AD18A42174662D9B2FA82F64EB1C6
:100D6000C6F1200301FA06F820FA03F3B74043EA7C
:100D70000808B4404FEA174E1FFA87FCB8FBFEF193
:100D8000230C0EFB118843EA084301FB0CF29A4244
:100D900009D9FB1801F1FF3080F0EA809A4240F255
:100DA000E78002393B449A1AA3B2B2FBFEF00EFB75
:100DB000102243EA024300FB0CFC9C4509D9FB18B6
:100DC00000F1FF3280F0D6809C4540F2D3803B4456
:100DD000023840EA0140A3EB0C0300211DB1F340AF
:100DE0000022C5E90032BDE8F0878B4205D90DB17C
:100DF000C5E9000100210846F5E7B3FA83F10029AF
:100E000046D1734502D3824200F20581841A6EEB0B
:100E1000030201209046002DE5D0C5E90048E2E735
:100E2000002A00F09080B2FA82F6002E40F0A480F2
:100E30008A1A030C4FEA174E80B2BCB20121B2FBF2
:100E4000FEFC0EFB1C2243EA024304FB0CF29A4216
:100E500007D9FB180CF1FF3802D29A4200F2E08069
:100E6000C4469B1AB3FBFEF20EFB123340EA034367
:100E700002FB04F49C4207D9FB1802F1FF3002D2B6
:100E80009C4200F2CA8002461B1B42EA0C40A5E7C6
:100E9000C1F120068B4022FA06F71F430EFA01F437
:100EA00020FA06F32EFA06FE4FEA1749234300FA0A
:100EB00001F81FFA87FCBEFBF9F01C0C09FB10EED1
:100EC00044EA0E4400FB0CFEA64502FA01F209D9E1
:100ED0003C1900F1FF3A80F09C80A64540F29980D1
:100EE00002383C44A4EB0E041FFA83FEB4FBF9F372
:100EF00009FB13444EEA044403FB0CFCA44508D947
:100F00003C1903F1FF3E80F08280A4457FD9023B6B
:100F10003C4443EA0040A4EB0C04A0FB02EC644513
:100F20007346E14662D35FD05DB1B8EB030264EB78
:100F3000090404FA06F622FA01F31E43CC40C5E97F
:100F4000006400214FE7B1FBF2FC010C41EA0E41C5
:100F500080B240EA01423B4638463C46B846BE466F
:100F60002026B1FBF7F1A2EB080241EA0C4166E74B
:100F7000014618E710462CE7C6F120022EFA02F3CC
:100F8000B740B14020FA02F24FEA174E0A43B3FBD2
:100F9000FEF8BCB20EFB1833110C41EA034108FB0A
:100FA00004F9B04089454FEA104380B23ED9791820
:100FB00008F1FF3C01D289451FD8A1EB0901B1FB23
:100FC000FEF909FB04F80EFB191192B242EA014244
:100FD000424529D2BA1809F1FF31C4D24245C2D2E2
:100FE000A9F102013A44BEE7F0459DD2BEEB0203EF
:100FF0006CEB070C0138E14696E7A7EB0909494479
:10100000A8F1020CB1FBFEF909FB04F8DBE773461B
:101010007FE7504666E70846FDE63B44023A33E781
:10102000ACF1020C3B441CE749469CE7A1EB0901EB
:10103000C446B1FBFEF909FB04F8C4E7704700BFE2
:1010400000F012BC00F046BC7FB50023039305936B
:1010500011230191029301A90323049302F070FE6E
:1010600007B05DF804FB20B10023C0E90033C0E9FC
:101070000212704710B5044620B102F019FA236835
:10108000C01AC00F10BD000010B50C4670B100684A
:1010900060B104F045FB064B0246002C14BF21460C
:1010A00019460448BDE810400CF060B910BD00BFFF
:1010B000886403088B640308F8B50C461746054698
:1010C00008B90020F8BD0029FBD00B68002BF8D030
:1010D00002F0EEF96B68EA68C31A93420646F0D351
:1010E000344B6860002F14BF3946194632480CF063
:1010F0003DF972B6206803F051FA62B62189606842
:10110000FFF7A2FF218AE068FFF79EFF2189606850
:10111000012202F081FF218AE068012202F07CFFB7
:1011200005200AF08DFD092721896068002202F060
:1011300073FF05200AF084FD21896068012202F016
:101140006BFF05200AF07CFD013FEDD13A46218A74
:10115000E06802F061FF05200AF072FD21896068F5
:10116000012202F059FF05200AF06AFD0122218ABE
:10117000E06802F051FF05200AF062FD206803F0EC
:1011800065F92189606802F041FF218A0746E0681D
:1011900002F03CFF431E5A4207F1FF305A414142E0
:1011A000414106480CF0E2F8AB6833442B60012063
:1011B00088E700BF88640308C2640308F664030874
:1011C00000487047AC030020024B186002480AF048
:1011D0005BBA00BFF4040020AC030020034B1B6883
:1011E00013B103480AF06ABA704700BFF404002044
:1011F000AC030020064B1A6832B1137829B11843AA
:10120000107008B901235370704723EA0000F7E714
:10121000F4040020064B186848B1037813F001006D
:1012200005D19A0702D403F00400704702207047EA
:10123000F4040020114B196810B50446E9B1E0B17F
:101240000378D3B1FFF7E6FF042814D8DFE800F0F5
:10125000030D151307000A4821460FF0FFF9214638
:101260000748BDE8104008F05DB821460448BDE8D5
:1012700010400FF0F3B901234B7010BDF4040020AF
:101280007D6603080FB400B5104BADF20C4D1B6822
:10129000DDF81024A3B19AB10DF214434FF480612C
:1012A00002A8019312F0F2FB002809DBB0F5806F71
:1012B000A8BF002302A8A8BF8DF80734FFF7BAFF24
:1012C0000DF20C4D5DF804EB04B07047F4040020FF
:1012D000FFF7B0BF38B5144B0D461968044611B37B
:1012E00008B305B3FFF796FF04281AD8DFE800F02B
:1012F000030D13190700294620460FF0DFF9294690
:101300002046BDE8384008F043B829462046BDE8ED
:1013100038400FF0D3B9E9B22046BDE8384009F0B3
:101320001DB801234B7038BDF404002010B50846E9
:10133000431E96B01146402B00F26E81DFE813F099
:1013400067006D00570061006C016C016C016C015D
:101350006C016C016C016C0199006C016C016C01F9
:101360006C016C016C016C016C016C016C016C0115
:1013700041006C016C016C016C016C017F00130178
:101380006C018F000201020102010201020102014F
:101390000201E900A4000D0107010701070107018F
:1013A00007010701250131016C016C013C01440179
:1013B0004B016C017900730052015A01610168010F
:1013C0006A0106A800F05AFC069B5BB11C684CB190
:1013D000FFF720FF022804F1180005D1B4F80C1221
:1013E000FFF778FF16B010BDFFF772FFFAE7042091
:1013F0000121FFF7FFFE8D4816B0BDE810400BF04D
:10140000AFBF04200021FFF7F5FE8948F4E7012172
:101410000846FFF7EFFE8748EEE701200021FFF7BF
:10142000E9FE8548E8E702200121FFF7E3FE834853
:10143000E2E702200021FFF7DDFE8148DCE706A895
:101440000DF0D6FB0228CDD1069C207900F01CFCC3
:1014500020880DF0BDFAE06801F030F8C2E7794865
:101460000BF081FF0021072016B0BDE81040FFF708
:10147000C1BE06A80DF030FA0228B3D1069B72480F
:1014800019880BF070FFADE768460CF095FC022858
:1014900003D06E480BF067FFA4E7009CA0680FF034
:1014A000F3F920690FF0FEF9E0680FF0ABF904F1F1
:1014B0001C000FF047F904F12C000FF053F904F170
:1014C0003C000FF05FF904F14C000FF06BF994ED64
:1014D000060A0FF09DF91022002102A812F088FBE5
:1014E00002A80FF06FF91022002106A812F080FB6D
:1014F00006A80FF077F994ED180A0FF0BFF9606EA7
:101500000FF0E4F90BF020FF0AF068FF08F0DCFEB2
:1015100068E789B10A784E4B4E4C002A18BF1C462A
:1015200040214D4A234606A812F008FA06A8FFF704
:10153000CFFE4A482146A4E7494816B0BDE810400E
:101540000BF00BBF16B0BDE8104000F069BA45487B
:1015500016B0BDE810400BF0FDBE434816B0BDE824
:1015600010400BF003BF06A80DF042FB022808D183
:10157000069C20890DF04CFAA1683C480BF0F6FE61
:1015800030E73B480BF0E9FE2CE73A484FF47A711C
:10159000FFF778FE01F08CFF374B00F57A7018608A
:1015A00020E70CF0F1FD28B1344816B0BDE810403A
:1015B000FFF768BE3248F8E701200CF03FFE08B1A3
:1015C0003048F2E73048F0E700200CF037FE002802
:1015D000F8D02E48E9E70CF025FE08B12C48E4E7E6
:1015E0002C48E2E701200CF085FE08B12A48DCE730
:1015F0002A48DAE700200CF07DFE0028F8D02848C1
:10160000D3E70CF06BFE08B12648CEE72648CCE7BE
:101610002648CAE72648C8E709F0EEFF01462548F4
:1016200016B0BDE810400BF09EBE00BF3665030843
:101630004F6503086B6503088B650308A565030800
:10164000BC650308D9650308F86503081F6603082D
:101650002F6503082D6503084066030855660308D7
:1016600080660308B5660308DF6603080967030898
:1016700032670308746703080C050020A667030897
:10168000C8670308EE670308236803084668030871
:101690007C680308A3680308CB680308076903088C
:1016A0002A6903086269030890690308BA69030894
:1016B000E1690308086A030808B50CF021FB0EF085
:1016C00051FF07F029FD08F027FE0DF057FA0DF045
:1016D000BDF80BF05DFB0AF0E9FD08F065F9BDE827
:1016E000084007F061BE000008B50CF061FB18B1BE
:1016F0002249002209F0CEFF07F06CFD18B11F4906
:10170000002209F0C7FF0EF053FF18B11B49002259
:1017100009F0C0FF08F07CFD18B11849002209F05B
:10172000B9FF0DF061FA18B11449002209F0B2FFB7
:101730000BF06EFB18B11149002209F0ABFF0DF060
:10174000C7F818B10D49002209F0A4FF08F048F9C4
:1017500018B10A49002209F09DFF0AF0DBFD18B11B
:101760000649002209F096FF07F05AFE28B1BDE8AD
:1017700008400249002209F08DBF08BD2D13020860
:1017800070B50CF027FB0EF03DFF0DF00DFA08F0E0
:1017900049FD07F02FFD2C4B5B78052B05D10DF093
:1017A000DBF8BDE8704007F05BBE0BF04FFB0AF0C2
:1017B000CDFD07F055FE08F033F901F079FE234B1B
:1017C0001E6842F21073861B9E4209D92048FFF71B
:1017D00051FC28B10DF0AAF8BDE870400DF0BCB87E
:1017E0000DF0A2F801F064FE1A4C20600DF0B4F880
:1017F00001F05EFE2568451B022D656002D80023BE
:10180000237370BD237B63B9A368C31A002B08DB65
:10181000C830A06001231049104823732A460BF0FA
:10182000A5FD42F210739E42EBD9032DE9D00C497D
:101830000C48FFF729FC0A4A0A490548FFF73CFC17
:10184000BDE870400DF072B814000020F8040020CC
:10185000FC040020100500201D6A0308236A030809
:101860005F6A03080000002010B5164CFFF724FF44
:10187000FFF73AFF204600F0C1F92046FFF7A4FC2D
:101880002046114C00F072F800F05AFA012000F0E6
:10189000FBF9FFF795FC2146002209F0FBFE00F062
:1018A000A9F92146002209F0F5FE01F001FE074BDF
:1018B000BDE810401860C82205484FF4FA71FFF7E0
:1018C000D2BB00BF140000202D130208F804002032
:1018D000FC04002010B5124CFFF752FF00F098F9FD
:1018E00000F052F800F042FAFFF778FC2368B3B139
:1018F00001F0DEFD2368C01A002810DB0948FFF75D
:10190000C1FC72B6BFF34F8F0749084BCA6802F497
:10191000E0621343CB60BFF34F8F00BFFDE710BD04
:101920000C050020676A030800ED00E00400FA05DA
:101930000D4B1B68BBB15B78013B062B11D8DFE870
:1019400003F00408060A0C100E000AF07DBD0AF030
:1019500063BD0AF0BBBD0AF047BD0AF00DBE0AF038
:10196000DFBD0AF089BD70473005002008B5044B83
:101970001860044809F028FFBDE808400AF030BEAE
:1019800030050020180000207047000038B50546DB
:1019900008460C460CF010FA022801D1236823B93E
:1019A00003480BF0DAFC002038BD2B600120FBE778
:1019B000876A0308013A92B28A4202D104480BF0C6
:1019C000C9BC03780BB90348F9E7FFF781BC00BF36
:1019D000CC6A0308136B030800B5ADF5017D6946B9
:1019E0004FF400720CF000F94FF4007201466846A3
:1019F000FFF7E0FF0DF5017D5DF804FB00B5ADF2EA
:101A0000044D69464FF480620CF044F84FF4806254
:101A100001466846FFF7CEFF0DF2044D5DF804FB6A
:101A200010B52928ADF5047D09D822280AD9243813
:101A300005280AD8DFE800F0141C7D2D49644228EF
:101A400000F0A3800DF5047D10BD04A902A8FFF7E6
:101A50009DFF0028F6D002980430FFF7CFFFF1E792
:101A600004A902A8FFF792FF0028EBD0029843E0F8
:101A700004A902A8FFF78AFF0028E3D0029C002CEB
:101A8000E0D0201DFFF7BAFF04F16C00FFF7A4FFC0
:101A9000D8E704A80DF0C4F818B946480BF05DFC6F
:101AA000D0E704A80BF0EAFF04A80CF0CDF950B978
:101AB00041480BF055FC02A901A8FFF767FF002879
:101AC000C0D00198C8E73D48E8E704A80DF0BCF88D
:101AD00008B93B48E2E704A80BF0D4FF04A80CF0D7
:101AE00079FA58B937480BF03BFC02A901A8FFF777
:101AF0004DFF0028A6D001986C30C7E73248CDE7EB
:101B000032480BF033FC0CF0CDFA01460446304865
:101B10000BF026FC2F4B3048002C08BF1846FFF76F
:101B2000D7FB04A902A8FFF731FF00289ED12B485C
:101B3000B4E701F0BDFC2A4A137843B129490B6888
:101B4000C31AB3F57A7F82BF002313700B6013783A
:101B50002BB9244B18600123234813700FE0013385
:101B6000DBB2022BF8D9002313701E4A13600CF06D
:101B7000FBFA1E4A1E4B00280CBF104618460DF5F6
:101B8000047DBDE81040FFF7A3BB02A901A8FFF741
:101B9000FDFE00283FF456AF019804A94FF40072EF
:101BA00004300CF057F84FF40072014604A8FFF718
:101BB00001FF47E7376C0308816C0308B26C030828
:101BC000E56C03082D6D03085C6D03088D6D03083B
:101BD000C46D0308566B0308896B0308F96D03088D
:101BE00034050020380500204B6E0308016C030803
:101BF000CD6B03080048704760070020024B186057
:101C0000024809F041BD00BFA8080020600700207D
:101C100070B5174B1C6886B03CB3164E4FF4097272
:101C20000021304611F0E4FF4FF4FA7206F118017A
:101C3000607800F06BFC6C46A6F80C0268460EF06B
:101C400049FD0FCC06F504750FC523682B60B6F867
:101C50000C3253B108483246192109F02CFD0648D0
:101C600006B0BDE8704009F029BD06B070BD00BFE8
:101C7000A80800203C0500206007002008B1014BA7
:101C80000360704724000020094B1B68014673B1B4
:101C90000A2802D8074A125C12B907480BF05DBB4C
:101CA0005A78824203D0587004480BF059BB7047F1
:101CB000A808002033880308826E0308A46E030876
:101CC000044B03EBC0010022898853F8300002F076
:101CD000A3B900BF608803082DE9F041154F164DE8
:101CE000164E00244FF0010817F8013B012B04D0D9
:101CF000336863B92046FFF7E3FF0134E4B2082CF0
:101D000005F1080506F10406EED1BDE8F08198471B
:101D10000238C0B2012807D8A988286807F8018CC2
:101D2000012202F079F9E8E7A988286802F079F938
:101D3000E3E700BFAC080020608803084088030880
:101D400070B50024074D26462046013405F8016B86
:101D5000E4B2FFF7B5FF082CF6D1BDE870400248A9
:101D600009F032BDAC0800202C00002070470000B4
:101D700030B58BB0044605A80D460EF0ABFC074B02
:101D80000293059B0193064B0093064A099B294643
:101D9000204611F0D3FD80B20BB030BDF46E0308C5
:101DA000FA6E0308C96E03082DE9F04F2DED028B82
:101DB0000C4697B0064600B129B9002017B0BDEC1B
:101DC000028BBDE8F08F0BA80BF026F8022863D138
:101DD0000B9BD3ED038A93ED028ADD69D3F818B02B
:101DE0000BA80CF079FD02280CBF0B9B00270BA859
:101DF00006BFDF68D3F808A0BA460AF08FFA0228B7
:101E000008BF0B9B0BA80CBFD3F800804FF0000855
:101E100007F00AFB022808BF0B9B01A80CBFD3F8F0
:101E200004904FF000090EF055FC2C2200210DEB20
:101E3000020011F0DDFE01F03BFB07EE900A9FED82
:101E40001A7A019B0B93F8EE677A029B0C9367EE6C
:101E5000877A2246314606A8CDED0D7ACDED0E8A61
:101E60008DED0F8ACDF840B01195CDF848A0CDF892
:101E70004C90CDF8508015970EF03EF80B490BAA08
:101E800006A80EF023FB002897D0BDF824000028F8
:101E900093D0844292D290E7002508EE105A08EEC3
:101EA000905AAB469CE700BF6F12833ADC8C030864
:101EB0002DE9F04F2DED028BB1B0CDE929012CA811
:101EC0000BF07AFF2EA80AF0A7FF022840F0C1808D
:101ED0002E9BD3ED037A9C69CDED227AD3ED027A65
:101EE000CDED237AD3ED077ACDED247A2EA807F035
:101EF0009BFA022840F0B2802E9BD3ED007A9E68B8
:101F0000CDED257AD3ED017ACDED267A2EA80CF011
:101F1000E3FC022840F0A6802E9BD3ED037A9D6857
:101F2000CDED277AD3ED047ACDED287A2EA807F0EF
:101F30005BFD02280CBF2E9B00272EA803BFD3F801
:101F400004B0D3F808A01F68BA4618BFBB4607F014
:101F500045F902280CBF2E9B4FF000082EA806BFA3
:101F6000D3F80090D3F80480C1460AF0D7F90228CC
:101F70000ABF2E9B00231B682B9301F099FA2B9B21
:101F800008EE100A1846FEF7EFFACDE920013846B0
:101F9000FEF7EAFACDE91E015846FEF7E5FACDE96B
:101FA0001C015046FEF7E0FACDE91A012798FEF72A
:101FB000DBFACDE918012898FEF7D6FACDE916012B
:101FC0003046FEF7D1FACDE914012698FEF7CCFA97
:101FD000CDE912012598FEF7C7FACDE91001404678
:101FE000FEF7C2FACDE90E014846FEF7BDFACDE98B
:101FF0000C012846FEF7B8FACDE90A012398FEF74E
:10200000B3FACDE908012298FEF7AEFACDE9060150
:102010002046FEF7A9FACDE904012498FEF7A4FAB8
:10202000B8EE488ADFED117AC8EE277ACDE90201D1
:1020300017EE900AFEF798FA0D4ACDE90001DDE9A6
:10204000290111F07BFC80B231B0BDEC028BBDE800
:10205000F08F002424942394229447E700262696A8
:10206000259653E70025289527955FE700007A44D9
:10207000066F03082DE9F04F2DED028BA7B0CDE9D7
:1020800019011EA80AF0C8FE022840F086801E9B97
:102090005E681F68D3F814801C6920A80AF03EF916
:1020A000022808BF209B24A80CBFD3F800904FF053
:1020B000000907F0B9F902280CBF249B002522A8CB
:1020C00003BFD3F800A0D3F804B09D68AB4618BF97
:1020D000AA460CF001FC022809BF22990021CB6816
:1020E0000A690EBF89680A460B46CDE91C211B937D
:1020F00001F0DEF91D9908EE100A0846FEF734FAE1
:102100001C9ACDE916011046FEF72EFA1B9BCDE96D
:1021100014011846FEF728FACDE912012846FEF709
:1021200023FACDE910015846FEF71EFACDE90E015B
:102130005046FEF719FACDE90C014846FEF714FAAD
:10214000CDE90A012046FEF70FFACDE90801404625
:10215000FEF70AFACDE906013846FEF705FACDE9A1
:1021600004013046FEF700FAB8EE488ADFED0D7A3A
:10217000C8EE277ACDE9020117EE900AFEF7F4F9CE
:10218000094ACDE90001DDE9190111F0D7FB80B260
:1021900027B0BDEC028BBDE8F08F0024A046274697
:1021A00026467AE700007A445B6F03082DE9F04F7A
:1021B0002DED028B0E468DB00546002800F0A7805D
:1021C000072940F2A48005A80CF086FB02285CD108
:1021D000059F002F5AD0D7F808800CF01FFC074647
:1021E000052107A807F0A2F9834601F061F9494AE1
:1021F00008EE100A3146284611F0A0FB112E48DDEA
:10220000B8EE488ADFED447AC8EE277A05F111046A
:10221000A6F1110917EE900AFEF7A6F93F4ACDE99B
:1022200000012046494611F089FB00F11104A64245
:1022300016DD4046FEF798F9A6EB040A05EB040903
:10224000CDE90001364A5146484611F077FB044477
:10225000A64205DD311B2819324A11F06FFB063406
:102260000DF11C084FF000091FFA89F35B4512D3EA
:10227000A6422DDC35440023701E05F8013C80B2D7
:102280000DB0BDEC028BBDE8F08F00274FF00008C9
:10229000A6E71124E4E7A64215DD234A234BD8F82C
:1022A0000000B9F1000F18BF13460393FEF75CF965
:1022B00005EB040ACDE90001039B1D4A311B504682
:1022C00011F03CFB044409F1010908F10408CBE7D3
:1022D000311B2819174A013411F030FBA642C9DD21
:1022E000154A164B311B002F08BF13462819144AF4
:1022F00011F024FB0444A642BCDD311B2819114A0D
:10230000013411F01BFBA642B4DDA0B2B8E70020F7
:10231000B6E700BFDA6F030800007A44EC6F0308E9
:10232000FE6F03080A700308CD6F0308EA73030801
:102330001170030818700308D46F0308CF6F0308E7
:102340001A700308066A03082DE9F0432DED028B8D
:102350008DB004460AA80D460CF0BEFA02280CBF48
:102360000A9B00260AA806BFDF681E69374607F0E9
:102370003BFB022808BF0A9B0AA80CBFD3F80880C1
:102380004FF0000809F0CAFF02280ABF0A9B4FF06D
:102390000009D3F8009001F08BF808EE100A4846C7
:1023A000FEF7E2F8CDE908014046FEF7DDF8CDE999
:1023B00006013046FEF7D8F8CDE904013846FEF7AD
:1023C000D3F8B8EE488ADFED0B7AC8EE277ACDE96C
:1023D000020117EE900AFEF7C7F8074ACDE900019F
:1023E0002946204611F0AAFA80B20DB0BDEC028B4E
:1023F000BDE8F08300007A44257003082DE9F0431E
:102400002DED028B99B0054616A80E460AF004FD84
:10241000022843D1169B1F69D3F81480D3F8189073
:10242000DC6901F045F80023002208EE100A20467E
:10243000CDE91423CDE91223CDE91023CDE90E23F4
:10244000CDE90C23CDE90A23FEF78EF8CDE908018A
:102450004846FEF789F8CDE906014046FEF784F8C4
:10246000CDE904013846FEF77FF8B8EE488ADFED83
:102470000E7AC8EE277ACDE9020117EE900AFEF730
:1024800073F80A4ACDE900013146284611F056FAA0
:1024900080B219B0BDEC028BBDE8F0830024A146E8
:1024A000A0462746BDE700BF00007A447F700308BE
:1024B000014B01221A707047B508002038B5104D45
:1024C0002B688342044619D00028C8BF07EE900A43
:1024D000DFED0C6ACCBFB8EEE77AB7EE007AC6EE55
:1024E000877A01460848B2EE047A67EE877AFCEEF6
:1024F000E77A17EE902A0AF036FF2C6038BD00BF4D
:102500004400002000007A445D7103082DE9F04189
:10251000264F3B7804460D46164623B9244809F059
:1025200053F901233B70012C2DD0A31F012B2DD972
:10253000204B1B68A3F16402B2F5617F29D807EE36
:10254000903ADFED1D6AB8EEE77AC6EE877AB2EE12
:10255000047A67EE877AFCEEE77A17EE903A144A2F
:102560009360164A1378EBB100231370144A12F8E3
:102570003300A04202EBC3010DD14B68284631461F
:10258000BDE8F04118474FF47A73E8E740F6B833F6
:10259000E5E70923E3E70133072BE8D109482146A2
:1025A0000AF0DBFE0020BDE8F08100BFB408002087
:1025B000380000204400002000007A44B5080020C4
:1025C000A08803087E71030813B50F4B0024019403
:1025D0001A6B42F480021A631B6B03F480032246D9
:1025E000214601933A20019B00F08EFF3A2000F033
:1025F000BDFF22462146462000F086FF462002B05D
:10260000BDE8104000F0B2BF003802402DE9F04FA5
:102610008DB01422002107A811F0EAFA0024734BB0
:1026200001941A6BDFF8D0B1DFF8D0A1704F714E72
:10263000DFF8CC8142F080021A631A6B02F080024C
:102640000192019A02941A6B42F001021A631A6B0A
:1026500002F001020292029A03941A6B42F0040201
:102660001A631A6B02F004020392039A04941A6B21
:1026700042F010021A631A6B02F010020492049ADC
:1026800005941A6B42F002021A631A6B02F00202FE
:102690000592059A06941A6B42F008021A631B6BA6
:1026A00003F008030693584601221021069B01F00F
:1026B000B3FC224650464FF4607101F0ADFC384641
:1026C00001224FF4805101F0A7FC224630464CF61F
:1026D000E04101F0A1FC22464046402101F09CFC73
:1026E000304601220A2101F097FC22463846182183
:1026F00001F092FC01254FF0100907A95846CDE9D9
:102700000795CDE9095501F01BFBCDF81C9007A9F1
:102710004FF404194046CDE9089501F011FB4FF440
:10272000607307A95046CDE90735CDE9094401F0AA
:1027300007FB4FF48053CDE9073507A9022338463C
:102740000A93099501F0FCFA4FF4827307A9304609
:10275000CDE90739099501F0F3FA4CF6E04307A9F2
:102760003046CDE90735CDE9094401F0E9FA4023C7
:1027700007A94046CDE90735CDE9094401F0E0FA63
:1027800007A930464FF00A08CDE90754099401F033
:10279000D7FA07A93046CDE90785CDE9095501F0FB
:1027A000CFFA182307A93846CDE90735CDE9094402
:1027B00001F0C6FA22462146082000F0A5FE0820B6
:1027C00000F0D4FE22462146404600F09DFE4046E1
:1027D00000F0CCFE22462146172000F095FE17207F
:1027E00000F0C4FE0DB0BDE8F08F00BF003802401D
:1027F00000040240000C02400000024000100240B1
:102800000008024008B50B480B4A0C4BC0E90023F6
:1028100000234FF48042C0E90233C0E90423C0E939
:102820000633036201F012FE18B1BDE8084000F063
:1028300095B908BD0C09002000540040A086010095
:1028400008B50B480B4A0C4BC0E9002300234FF49A
:102850008042C0E90233C0E90423C0E906330362C1
:1028600001F0F4FD18B1BDE8084000F077B908BDEB
:10287000B808002000580040A086010030B514229E
:102880008BB0044600210DEB020011F0B1F9236872
:10289000364A934235D1364C00250195236B43F0DF
:1028A00002032363236B03F002030193019B4FF4A4
:1028B000407012234FF0030CCDE9050305A9042352
:1028C0002C48CDE908C301F03BFA0295236C43F490
:1028D00000132364236C03F400132A462946029351
:1028E0001F20029B00F010FE1F2000F03FFE202062
:1028F0002A46294600F008FE202000F037FE0BB0E3
:1029000030BD1D4A9342FAD1194C1A48002503954F
:10291000236B43F002032363236B03F0020303934F
:102920004FF44062039B1223CDE9052303210423C6
:10293000CDE9081305A901F003FA0495236C43F4CB
:1029400080032364236C03F480032A4629460493FE
:102950002120049B00F0D8FD212000F007FE22205A
:102960002A46294600F0D0FD2220C6E70054004048
:1029700000380240000402400058004008B51A4ADE
:102980000368934217D102F5F2321848136C23F40E
:10299000001313644FF4807101F0AAFA13484FF446
:1029A000007101F0A5FA1F2000F0EEFD2020BDE827
:1029B000084000F0E9BD0E4A934214D102F5F0320E
:1029C0000A48136C23F4800313644FF4806101F010
:1029D0008FFA06484FF4006101F08AFA212000F0D6
:1029E000D3FD2220E3E708BD00540040000402406C
:1029F0000058004010B5002494B02146142203A8CA
:102A0000CDE90A440C9411F0F3F8214B01941A6CAF
:102A100042F080521A641B6C03F080530193019BB7
:102A20001C4B02941A6842F480421A601B6803F43B
:102A300080430293029B09214FF480330224CDE9A5
:102A4000081301234FF48000CDE90D340423CDE9B0
:102A50000F03A823CDE9113408A80723139303F02B
:102A6000ADFB08B172B6FEE70F23CDE90334059044
:102A70004FF4A0524FF48053052103A8CDE906235B
:102A800003F078FD08B172B6FEE714B010BD00BFC8
:102A9000003802400070004038B572B62A4A2B4B0D
:102AA000C2F3080121B99A60BFF34F8FBFF36F8F54
:102AB000D3F8882042F47002C3F88820BFF34F8F08
:102AC000BFF36F8F224B5A6B42F040425A63DA6B6E
:102AD00042F0A062DA6300F0C5FCFFF78BFF62B63C
:102AE000FFF794FDFFF770FD00F0A2FA00F072F816
:102AF0000EF068FDFFF786FE00F060FB00F060FA64
:102B000000F02EF800F0AAFB00F088F800F0A8F81A
:102B1000FFF796FE00F0CCFC0E4D044695F89C3273
:102B2000032B07D1FEF78CFA0B4804F093FBFEF75A
:102B300089FAFCE700F0BCFC031BB3F5FA7FF1D285
:102B4000012000F0BBFCE9E70000020800ED00E016
:102B500000EF00E0846B00208C0A002072B6FEE7D4
:102B60000A480B4A08B50023C0E900237F21FF2251
:102B7000C0E90212C0E90433836103F0A0FE18B17A
:102B8000BDE80840FFF7EABF08BD00BF60090020AC
:102B9000002800401FB5044610220021684611F0AD
:102BA00027F82268094B9A420ED102230093684607
:102BB0004FF40073039303F09DFD08B1FFF7CEFFC0
:102BC000034B0122C3F83C2E04B010BD0028004086
:102BD000000047420F48104A08B54FF48273C0E91D
:102BE000002301214FF400720023C0E905122822BE
:102BF000C0E90233C0E90723C0E9093303610A23AE
:102C0000C36203F06BFF18B1BDE80840FFF7A6BF31
:102C100008BD00BF300A0020003001400E480F4AB6
:102C200008B54FF48273C0E900230023C0E90233E2
:102C3000C0E90433C0E908334FF40071082283620D
:102C40000A23C0E90612C36203F048FF18B1BDE8C9
:102C50000840FFF783BF08BDD809002000380040B6
:102C60000E480F4A08B54FF48273C0E900230023D1
:102C7000C0E90233C0E90433C0E908334FF40071FE
:102C8000082283620A23C0E90612C36203F026FF0A
:102C900018B1BDE80840FFF761BF08BD80090020FA
:102CA000003C004070B504468CB01422002107A8F7
:102CB00010F09EFF2368414A93422DD1404B41487A
:102CC000002401945A6C42F480525A645A6C02F403
:102CD00080520192019A02941A6B42F001021A6327
:102CE0001B6B03F0010302930225029B0A9520232C
:102CF000052607A9CDE907350B9601F021F8C02379
:102D0000CDE907350123CDE90A362E48099407A9F4
:102D100001F016F80CB070BD2B4A934220D1284B1D
:102D20002A48002103911A6C42F480421A641A6CFA
:102D300002F480420392039A04911A6B42F0020259
:102D40001A631B6B03F0020304934FF46041049B6E
:102D50000223CDE907130A9305230B9307A9D7E7AD
:102D60001B4A9342D6D1164B1A48002405941A6C7C
:102D700042F400421A641A6C02F400420592059A69
:102D800006941A6B42F004021A631B6B03F00403EF
:102D90000693069B4FF4E0520223CDE907230A93E2
:102DA00007A906230B9300F0CBFF224621463320D0
:102DB00000F0AAFB332000F0D9FBABE70030014064
:102DC0000038024000000240003800400004024089
:102DD000003C00400008024082B00C4B00210091F2
:102DE0005A6C42F480425A645A6C02F48042009257
:102DF000009A01911A6C42F080521A641B6C03F025
:102E000080530193019B02B0704700BF003802401D
:102E100072B6BFF34F8F0549054BCA6802F4E062F2
:102E20001343CB60BFF34F8F00BFFDE700ED00E021
:102E30000400FA0508B5FFF7EBFF08B5FFF7E8FF58
:102E400008B5FFF7E5FF08B5FFF7E2FF70477047E9
:102E5000704700F021BB042001F0ECB8102001F015
:102E6000E9B84FF4807001F0E5B80000014804F0C3
:102E700045BA00BF1C0B0020014804F03FBA00BF58
:102E8000D40A0020014801F05FBF00BF0C090020F8
:102E9000014802F0A9BB00BF0C090020014801F065
:102EA00053BF00BFB8080020014802F09DBB00BF1F
:102EB000B8080020014805F029B900BF240C002003
:102EC000014804F01BBA00BF8C0A0020014804F03E
:102ED000B3B800BF80090020014800F0C3BC00BFA8
:102EE000C40B0020014802F0E3BD00BF8482002033
:102EF000014800F0B7BC00BF640B00200120704700
:102F000008B510F06FFF162303604FF0FF3008BDC7
:102F100008B510F067FF16230360FEE770B50D4695
:102F200014460E46731B9C4201DC204670BDAFF375
:102F3000008006F8010BF5E770B50D4614460E4605
:102F4000731B9C4201DC204670BD16F8010BAFF3E9
:102F50000080F5E74FF0FF3070474FF400534B60AF
:102F60000020704701207047002070470B4A11680D
:102F700010B5034609B90A491160106809490A4C9D
:102F80000344091B8B4206D910F02CFF0C2303606D
:102F90004FF0FF3010BD1360FCE700BF880A00202F
:102FA000B88800200000022000400000034AD2F848
:102FB000883043F47003C2F88830704700ED00E0B9
:102FC00010B5002486B01022214602A8CDE90044A5
:102FD00010F00EFE144853234FF08042C0E9002346
:102FE000124B8460C0E903348023836104F0CAFA81
:102FF00008B1FFF7B3FD0C486946CDE9004404F081
:10300000CDFD08B1FFF7AAFD00220123064802A961
:10301000CDE90223CDE9042204F0A0FB08B1FFF7BB
:103020009DFD06B010BD00BF1C0B00203F420F00ED
:103030001FB510220021684610F0DAFD0E480F4A35
:103040005323C0E9002300236322C0E90232036155
:103050008023836104F03EFA08B1FFF77FFD4FF44F
:10306000805305480093694604F00EFC08B1FFF751
:1030700075FD05B05DF804FB8C0A002000180040C7
:1030800010B5044688B01422002103A810F0B0FD4A
:103090002368B3F1804F29D103F50E330024019446
:1030A0001A6C134842F001021A641A6C02F0010211
:1030B0000192019A02941A6B42F001021A631B6B8F
:1030C00003F0010302930122029B0792022303A94A
:1030D000CDE90323CDE9053300F032FE1C20224662
:1030E000214600F011FA1C2000F040FA08B010BD93
:1030F0000000024007B50368184A934215D1184BE7
:1031000000220092196C41F0020119641B6C03F05B
:10311000020300931D201146009B00F0F5F91D20CD
:1031200003B05DF804EB00F021BA0E4A934211D1CE
:103130000B4B00220192196C41F0400119641B6C89
:1031400003F0400301932B201146019B00F0DCF9B2
:103150002B20E5E703B05DF804FB00BF000400404E
:10316000003802400018004010B5044686B0142212
:10317000002101A810F03CFD22680D4B9A4214D1A9
:10318000002300930B4B0C481A6B42F004021A63A5
:103190001B6B03F004030093009B8022022301A910
:1031A000CDE90123059300F0CBFD06B010BD00BFB3
:1031B00000040040003802400008024010B58EB004
:1031C0001022002103A810F013FD00241C220DEB97
:1031D00002002146CDE9014410F00AFD1D481E4AB7
:1031E00084605323C0E9002344F61F63C0E903341D
:1031F000846104F06FF908B1FFF7B0FC4FF480531D
:103200001448039303A904F03FFB08B1FFF7A6FCA1
:10321000104804F08BF908B1FFF7A0FC00240D481A
:1032200001A9CDE9014404F0B9FC08B1FFF796FC0F
:10323000602308480994042207A9CDE907340B94B8
:1032400004F0FCF908B1FFF789FC0248FFF78CFF96
:103250000EB010BDD40A00200004004008B50A4892
:103260000A4A0B4BC0E9002300230C22C0E90233B9
:10327000C0E905230361C36104F05CFD18B1BDE83A
:103280000840FFF76BBC08BD240C00200010014073
:1032900060E3160070B5064688B01422002103A82A
:1032A00010F0A6FC3268314B9A425DD1002503F53F
:1032B000943301955A6C42F010025A645A6C02F031
:1032C00010020192019A02951A6B42F002021A63EF
:1032D0001B6B03F002030293029BC0200223CDE983
:1032E000030303240723224803A9CDE9064300F082
:1032F00027FD204CDFF888C04FF00063C4E900C30D
:1033000020464FF48063C4E90255C4E90435C4E99A
:103310000655C4E9085500F073F908B1FFF71EFC23
:10332000154AF463A663154C4FF00063C4E900230B
:10333000402100234FF480622046C4E90213C4E90F
:103340000423C4E90633C4E9083300F059F908B18D
:10335000FFF704FC0022B46325201146A66300F0A9
:10336000D3F8252000F002F908B070BD001001402C
:1033700000040240C40B0020B8640240640B00202B
:103380004064024002680D4B9A4210B5044613D1C6
:103390000B4A0C48536C23F010035364C02100F017
:1033A000A7FDE06B00F0AAF9A06B00F0A7F9BDE85B
:1033B0001040252000F0E8B810BD00BF001001400B
:1033C0000038024000040240DFF834D0FFF7EEFD81
:1033D0000C480D490D4A002302E0D458C450043370
:1033E000C4188C42F9D30A4A0A4C002301E0136046
:1033F0000432A242FBD310F0FBFCFFF74DFB7047F9
:1034000000000220000000208C030020888F0308A9
:1034100090030020B4880020FEE7000038B50E4B72
:103420001A784FF47A73B3FBF2F30C4A054610682E
:10343000B0FBF3F000F0BAF8044658B90F2D09D8E4
:10344000024629464FF0FF3000F05EF8044B20465C
:103450001D6038BD0120FCE74C0000204800002022
:103460005000002008B50B4B1A6842F400721A6035
:103470001A6842F480621A601A6842F480721A6014
:10348000032000F02FF80F20FFF7C8FFFFF7A4FC80
:10349000002008BD003C0240034A044B11681B7821
:1034A0000B441360704700BF6C0C00204C000020E0
:1034B000014B1868704700BF6C0C002038B50446FB
:1034C000FFF7F6FF631C1CBF054B1B78054618BFB2
:1034D000E418FFF7EDFF431BA342FAD338BD00BF4A
:1034E0004C0000200749CA6822F4E062030212047B
:1034F00003F4E063120C134343F0BF6343F400335F
:10350000CB60704700ED00E0164B30B5DC68C4F3CB
:103510000224C4F10703251D042B28BF0423062D14
:103520004FF0FF358CBF033C002405FA03F321EA7A
:103530000303A54022EA0502A340002843EA020350
:10354000ACBF00F16040084A4FEA0313B8BF00F077
:103550000F00DBB2AABF00F56140135480F80033BE
:1035600030BD00BF00ED00E014ED00E0002807DBF7
:10357000044A4109012300F01F00834042F8213032
:10358000704700BF00E100E000280CDB430906495A
:1035900000F01F0020330122824041F82320BFF3B6
:1035A0004F8FBFF36F8F704700E100E00138B0F13B
:1035B000807F0BD24FF0E023054A5861F02182F85A
:1035C00023100020072298611A617047012070477C
:1035D00000ED00E0036810B5084C0246D9B210397E
:1035E0001820B1FBF0F0205CD06523F47F7020F050
:1035F00003005F2988BF0430906510BDF088030880
:1036000070B50446FFF754FF0546002C60D0022336
:1036100084F835302268002384F83430136823F0AE
:103620000103136022681368D8072ED41368324848
:10363000A1691840D4E901352B43E5682B4325697E
:103640002B4365692B43E5690B432B43256A2B43C9
:103650000343606A042802BFD4E90B5635432B4369
:1036600013605369042823F0070343EA000335D1AC
:10367000A06AE56A03438DB391B9012820D030F0E8
:1036800002012BD1E90129D51DE0FFF711FF401BF5
:103690000528C7D920230320636584F8350070BD51
:1036A000B1F5005F16D1032818D801A151F820F018
:1036B000C736020885360208C7360208C136020836
:1036C000B5F1C07F0AD140236365012384F835300A
:1036D0000120E4E70228F6D90328D3D0536120461D
:1036E000FFF778FFE26D3F239340836000200123C2
:1036F000606584F83530D2E73F8010F038B5054674
:1037000020B390F83530022BDCB21DD003681A6864
:1037100022F0010200241A6021221C605C609C607F
:10372000DC601C615A61FFF755FFEA6D3F2393404F
:10373000C5E90F44C5E91144C5E9134483606C65CC
:1037400085F8344085F83540204638BD0124FBE734
:1037500070B590F83440866D012C30D0012480F88B
:10376000344090F83540012C4FF0000425D102255B
:1037700080F8355044650468256825F48025256067
:1037800063608368402B0EBFA260A160E260C26DDF
:1037900008BFE1603F239340B360236843F0160302
:1037A0002360036C1BB1236843F008032360236884
:1037B00043F001032360002070BD80F834400220F4
:1037C000FAE770B50446866DFFF772FE94F835305F
:1037D000022B054606D0802363650120002384F870
:1037E000343070BD23681A6822F016021A605A69D4
:1037F00022F080025A61226C0AB9A26C1AB11A68CE
:1038000022F008021A601A6822F001021A60236886
:10381000186810F0010007D1E26D3F239340B360B8
:10382000012384F83530D9E7FFF742FE401B052815
:10383000EDD920230320636584F83500CEE790F8A6
:103840003530022B03D08023436501207047026886
:10385000052380F83530136823F00103136000203E
:1038600070470000F7B5002301935C4B856D1F681E
:10387000C36D2E6808229A40324204460CD001687B
:103880000868400708D5086820F004000860AA60AE
:10389000626D42F00102626501229A40324208D014
:1038A00021684969090641BFAA60626D42F00202BF
:1038B000626504229A40324208D02168096888076C
:1038C00041BFAA60626D42F00402626510229A4014
:1038D000324210D02368196809070CD5AA601A680B
:1038E000500337D51B68190301D4236C00E0A36C87
:1038F0000BB120469847E16D20228A4032423AD0EF
:1039000023681868C60636D5AA6094F83520052ABB
:103910001A6827D122F016021A605A6922F0800232
:103920005A61226C0AB9A26C1AB11A6822F0080214
:103930001A603F238B40AB60012384F835300023AD
:1039400084F83430236D002B45D0204603B0BDE809
:10395000F04018471A68D2055EBF1A6822F00802C4
:103960001A60C2E7500327D51B68190331D4636C72
:103970000BB120469847636D6BB3636DDA0719D5B9
:1039800022684FF41653B7FBF3F7052384F835305C
:10399000136823F001031360019B0133BB420193C1
:1039A00002D81368DB07F7D4012384F835300023ED
:1039B00084F83430E36CC6E71A6812F4807208D1D8
:1039C000196821F010011960012384F8353084F85A
:1039D0003420E36BCCE703B0F0BD00BF480000200B
:1039E00090F835007047406D70470000094910B5E8
:1039F0000C6924F440740C610C6944F440740C614B
:103A00000C6944F001040C610260BFF36F8F4360E6
:103A100010BD00BF003C0240074B1A6922F44072FF
:103A20001A611A6942F400721A611A6942F00102BD
:103A30001A610160704700BF003C0240074B1A69E1
:103A400022F440721A611A6942F480721A611A698A
:103A500042F001021A610180704700BF003C024041
:103A60001A4BDA68D20606D51949CA6942F0100223
:103A7000CA611022DA60DA68900606D51449CA696C
:103A800042F00802CA612022DA60104BDA6851065F
:103A900006D50F49CA6942F00402CA614022DA60C1
:103AA000DA68120606D50A49CA6942F00202CA61FA
:103AB0008022DA60054AD3689B0706D50449CB69A2
:103AC00043F02003CB610223D3607047003C0240E7
:103AD000700C0020064B1A69002ABFBF054A5A60C5
:103AE00002F188325A60BABF1869C00F00207047CF
:103AF000003C024023016745034A136943F0004339
:103B000013610020704700BF003C0240114B70B5AC
:103B100000220446DA61FFF7CBFC0F4D0646EB6846
:103B2000DA030CD4EB68DB0744BF0123EB60E868E1
:103B300010F0F20007D0FFF793FF012003E0611CB3
:103B4000EDD00CB9032070BDFFF7B2FC801BA04282
:103B5000E5D9F7E7700C0020003C02402DE9F04168
:103B60001F4E9846337E012B07460D46144635D02E
:103B700001234CF250303376FFF7C8FFB0B9CFB90C
:103B8000184B1A6922F440721A611A691A611A698B
:103B9000E4B242F001021A612C704CF25030FFF78F
:103BA000B5FF104A136923F0010313610023337634
:103BB000BDE8F081012F04D1A1B22846FFF73EFFF6
:103BC000EBE7022F04D121462846FFF725FFE4E763
:103BD000224643462846FFF709FFDEE70220E7E7D3
:103BE000700C0020003C0240074B1A6922F440721E
:103BF0001A611A6942F004021A611A6942EA002243
:103C000042F480321A617047003C02400D4B1A6941
:103C100022F440721A611A69022994BF09024FF412
:103C200040710A431A611A6922F0F8021A611A698E
:103C300042EAC00040F0020018611A6942F4803282
:103C40001A617047003C0240144B1A6891050FD569
:103C50001A6822F400721A601A6842F400621A604C
:103C60001A6822F400621A601A6842F400721A603C
:103C70000A4B1A6852050FD51A6822F480621A603E
:103C80001A6842F480521A601A6822F480521A604C
:103C90001A6842F480621A60704700BF003C02401C
:103CA0002DE9F843DFF8948098F81830012B054689
:103CB0000F463FD001234CF2503088F81830FFF700
:103CC00025FF0446A0B94FF0FF333B602B68012B62
:103CD00014D1287CFFF788FF4CF25030FFF716FF15
:103CE000154A136923F0040304461361FFF7ACFF80
:103CF000002388F818302046BDE8F883AE68DFF866
:103D00003890D5E902231344B342EFD9297C3046D9
:103D1000FFF77CFF4CF25030FFF7F8FED9F8103077
:103D200023F0FA03C9F8103010B13E600446DDE715
:103D30000136E6E70224DEE7003C0240700C00207A
:103D40002DE9F74FDFF8A491664A00230D6801249E
:103D50009C4004EA0506AC4340F0AF804D68032761
:103D600005F003044FEA430807FA08FC671E012F19
:103D70006FEA0C0C34D8876807EA0C0ECF6807FA94
:103D800008F747EA0E078760476827EA060EC5F37B
:103D900000179F4047EA0E074760C76807EA0C0E06
:103DA0008F6807FA08F747EA0E07022CC76019D197
:103DB0004FEAD30A00EB8A0A03F0070BDAF8207007
:103DC0004FEA8B0B4FF00F0E0EFA0BFE27EA0E0E8A
:103DD0000F6907FA0BF747EA0E07CAF8207001E0EF
:103DE000032CDAD1076804FA08F407EA0C073C430D
:103DF00015F4403F046060D000240194D9F8444099
:103E000044F48044C9F84440D9F8444023F00307FF
:103E100007F1804704F4804407F59C37019403F0D0
:103E2000030C019CD7F808E04FEA8C0C0F2404FA2D
:103E30000CF42EEA040E2C4CA04245D004F580640C
:103E4000A04243D004F58064A04241D004F58064D0
:103E5000A0423FD004F58064A0423DD004F58064C8
:103E6000A0423BD004F58064A04239D004F58064C0
:103E7000A04214BF0824072404FA0CF444EA0E04F8
:103E8000BC609468F74315F4801F0CBF3C4034437A
:103E90009460D46815F4001F0CBF3C403443D460D8
:103EA000546815F4003F0CBF3C4034435460146820
:103EB000ED0354BF3C40344314600133102B7FF4B6
:103EC00045AF03B0BDE8F08F0024D5E70124D3E768
:103ED0000224D1E70324CFE70424CDE70524CBE770
:103EE0000624C9E7003C01400000024000380240BF
:103EF0002DE9F04F434C00224FF0010A4FF00F081C
:103F00004FF0030B0AFA02FC3CEA01030CEA01063B
:103F100064D122F0030505F1804505F59C3502F0DA
:103F20000307AB68BF0008FA07F909EA030E364B2E
:103F3000984258D003F58063984256D003F58063C9
:103F4000984254D003F58063984252D003F58063C1
:103F5000984250D003F5806398424ED003F58063B9
:103F600098424CD003F58063984214BF082307237E
:103F7000BB40734513D1236823EA060323606368BB
:103F800023EA06036360E36823EA0603E360A368A9
:103F900023EA0603A360AB6823EA0903AB60056864
:103FA00053000BFA03F3D60825EA030500EB860657
:103FB000056002F00705376AAD0008FA05F527EA43
:103FC00005073762C56825EA0305C560456825EA27
:103FD0000C054560856825EA030383600132102AD9
:103FE00090D1BDE8F08F0023C2E70123C0E7022390
:103FF000BEE70323BCE70423BAE70523B8E706239B
:10400000B6E700BF003C01400000024003691942CE
:1040100014BF0120002070470AB181617047090474
:10402000FBE7436901EA030221EA030141EA024195
:1040300081617047044A5169014208B502D050615C
:1040400007F0D8FA08BD00BF003C014001684B6989
:1040500013F480634FF0000210D06FF480634B6163
:104060002023026380F83D3080F83E20036C80F806
:104070003C2043F004030364012070471846704756
:104080002DE9F84606460F4691461D464FEA114A6D
:104090003368BAF1010F0CBF5C699C6927EA04041C
:1040A000A4B2B4FA84F46409A14501D0002025E04B
:1040B0006A1CEED0FFF7FCF9089BC01AA84201D891
:1040C000002DE5D13368BAF1010F0CBF5B699B6924
:1040D00027EA03039BB2B3FA83F35B099945D7D16F
:1040E00000232022336386F83D2086F83E30326C70
:1040F00086F83C3042F0200232640120BDE8F886A8
:104100002DE9F04104460F46164698462568686931
:1041100027EA000080B2C0B16B695A0517D52B6839
:1041200043F400732B606FF480636B6120220023E3
:10413000236384F83D2084F83E30236C43F004036D
:104140002364002384F83C300120BDE8F081731C17
:10415000DDD0FFF7ADF9A0EB0800B04201D8002E8A
:10416000D4D123685A6927EA020292B2002ACDD03C
:1041700000232022236384F83D2084F83E30236C02
:104180001343DDE770B504460D46164623685B69A8
:104190001B0601D500201EE02046FFF757FFC8B9D7
:1041A0006A1CF3D0FFF784F9801BA84201D8002DC8
:1041B000ECD123685B6913F08003E7D120222363ED
:1041C00084F83D2084F83E30226C84F83C3042F084
:1041D00020022264012070BD2DE9F04315460268DB
:1041E00085B0DDE90C789946136843F48073136059
:1041F0000E463B46CDF8008000224FF001110446E8
:10420000FFF73EFF236838B11B68DB0502D54FF48A
:1042100000732364032620E006F0FE061E611A499F
:1042200043463A462046FFF76BFFA8B92368039040
:104230005A6903929B690393424639462046039B81
:10424000FFF7A0FF064660B1236C042B01BF226874
:10425000136843F4007313600126304605B0BDE8CF
:10426000F083B9F1010F236802D1EDB21D61F4E7CB
:104270002A0A1A61394642462046FFF783FF002882
:10428000E2D12368F1E700BF020001002DE9FF47FA
:104290009A46036815461A6842F480621A601A68E2
:1042A000DDE90C7842F480721A600E463B46CDF888
:1042B000008000224FF001110446FFF7E1FE236861
:1042C00038B11B68DB0544BF4FF40073236403203F
:1042D00021E05FFA86F906F0FE061E612B4943468F
:1042E0003A462046FFF70CFFA0B9236803905A69AD
:1042F00003929B690393424639462046039BFFF78E
:1043000041FF58B1236C042B01BF2268136843F4AA
:1043100000731360012004B0BDE8F087BAF1010F0B
:1043200023681AD1EDB242461D6139462046FFF797
:1043300029FF02460028E5D121680B6843F4807309
:104340000B602046CDF800803B464FF00111FFF78F
:1043500097FE226860B11368B4E72A0A1A613946E9
:1043600042462046FFF70EFF0028CBD12368D9E74D
:1043700049F001031361054943463A462046FFF7D9
:10438000BFFE003818BF0120C5E700BF02000100D2
:1043900070B504460D46164623685B695B0701D578
:1043A00000201EE02046FFF751FEC8B96A1CF3D07A
:1043B000FFF77EF8801BA84201D8002DECD12368BE
:1043C0005B6913F00403E7D12022236384F83D20C6
:1043D00084F83E30226C84F83C3042F020022264A3
:1043E000012070BD70B504460D46164621684B6924
:1043F00013F0400301D0002011E04A69D2060FD526
:104400006FF010024A612022236384F83D2084F873
:104410003E30236C2364002384F83C30012070BDBF
:10442000FFF746F8801BA84201D8002DDED1236893
:104430005B6913F04003D9D12022236384F83D2027
:1044400084F83E30236C1343E4E7000070B5044663
:1044500008B9012070BD90F83D3003F0FF021BB990
:1044600080F83C20FEF70AFA242384F83D302368C4
:104470001A6822F001021A601A6842F400421A60B7
:104480001A6822F400421A6002F014F93F4B656882
:104490009D4294BF3E4B3F4B98428CBF002301236B
:1044A000002BD6D12268394E51683B4BB0FBF3F359
:1044B00021F03F011943B542516088BF4FF4967611
:1044C000116A88BF734321F03F0184BF4FF47A76AD
:1044D000B3FBF6F301330B431362D169431E2B4840
:1044E00021F44F41854221F0FF0132D86D0040F6A2
:1044F000FC70B3FBF5F30133034242D0C3F30B036B
:104500001943D161D4E907301168034321F0C00198
:104510000B4313609168D4E9030321F4034103437F
:1045200021F0FF010B439360D4E90530D1680343C8
:1045300021F0FF010B43D360136843F001031360C4
:1045400000202023206484F83D30206384F83E005E
:1045500080E7A06850B905EB4505B3FBF5F30133DF
:10456000C3F30B037BB143F40043C9E7192068434D
:10457000B3FBF0F30133C3F30B0323B143F4404324
:10458000BEE70423BCE70123BAE700BFA086010011
:104590007F841E00FF083D0040420F0010B5044616
:1045A00098B10268242380F83D30136823F001039A
:1045B0001360FEF7E3F90020206484F83C0084F8DF
:1045C0003D00206384F83E0010BD0120FCE70000A0
:1045D0002DE9F743044699460C9E0F469046FEF798
:1045E00067FF94F83D30202B054603D0022003B02E
:1045F000BDE8F08300903C49192301222046FFF7D3
:104600003FFD0028F2D194F83C30012BEED0206819
:10461000012384F83C300368D9075EBF036843F088
:1046200001030360036823F400630360212384F81B
:104630003D30402384F83E30002323640A9B6362AC
:10464000BDF82C306385638D2385284BE362424699
:10465000CDE900654B4639462046FFF7BDFD0028F1
:104660002AD00120C3E7FFF78DFD40B1236C042B56
:1046700001BF2268136843F400731360F1E7636AB3
:1046800027681A4612F8011B39616262628D218D1A
:10469000013A92B262857A69481E80B2520720853B
:1046A0000AD548B15A783A6102336362638D013B9F
:1046B00002399BB221856385238D2A4631462046E7
:1046C000002BD0D1FFF764FE0028CFD122681368F9
:1046D00043F400731360202384F83D3084F83C00D9
:1046E00084F83E0083E700BF020010000000FFFFD7
:1046F0002DE9F043044687B09946109F0D46904639
:10470000FEF7D6FE94F83D30202B064604D0022555
:10471000284607B0BDE8F08300907A4919230122AA
:104720002046FFF7ADFC0028F1D194F83C30012B76
:10473000EDD02068012384F83C300368DB075EBFBE
:10474000036843F001030360036823F4006303601C
:10475000222384F83D30402384F83E300023236434
:104760000E9B6362BDF83C306385638D2385664B89
:10477000E3622946CDE900764B4642462046FFF7E4
:1047800085FD054608B10125C2E7228D2368B2B92F
:1047900002905A6902929A690292029A1A6842F445
:1047A00000721A60DFF86481238D002B2CD1202247
:1047B00084F83D2084F83C3084F83E30A8E7012A94
:1047C0000AD11A6822F480621A6003905A6903922F
:1047D0009A690392039AE1E7022A0ED11A6822F439
:1047E00080621A601A6842F400621A6004905A6982
:1047F00004929B690493049BD4E705905A6905923F
:104800009B690593059BCDE7032B56D8012B15D14A
:10481000324639462046FFF7E5FD0028B3D123682C
:104820001A69636A1A70636A01336362238D013BFC
:104830002385638D013B9BB26385B5E7022B009610
:104840003B464FF000024146204619D1FFF718FCC5
:10485000002898D123681A6842F400721A601A6915
:10486000636A1A70626A531C6362238D013B23855D
:10487000638D013B9BB2638523681B695370D2E74C
:10488000FFF7FEFB024600287FF47DAF236819681E
:1048900021F4806119601969636A1970636A0133D0
:1048A0006362238D013B2385638D013B9BB263854E
:1048B000414600963B462046C8E7324639462046E8
:1048C000FFF790FD00287FF45EAF23681A69636AE2
:1048D0001A70628D616A013A92B24B1C628522683D
:1048E0006362238D5069013B9BB2400723857FF5AE
:1048F0005BAF032B02BF136823F48063136013695B
:104900004B7090E7020010000000FFFF0400010060
:104910002DE9F04F044685B01F4688469246FEF7C3
:10492000C7FD94F83D30202B054603D0022005B08A
:10493000BDE8F08F00904D49192301222046FFF772
:104940009FFB0028F2D194F83C30012BEED00123DC
:1049500084F83C302368DFF814B11A68D0075EBFD2
:104960001A6842F001021A601A6822F400621A60A2
:10497000242384F83D3000263D4B266408F0FE08D1
:10498000E3622268136843F4807313604FF00111EF
:104990003B46009500222046FFF772FB236838B1A2
:1049A0001B68D90544BF4FF4007323640320BEE79E
:1049B000C3F81080FEF77CFD23685A695B690546E1
:1049C000C2F34002C3F380234FF0A00994F83D10D6
:1049D000A0291CD123684FF0200984F83D905A6922
:1049E00092072BD51A68214942F400721A600022FE
:1049F00003925A6903929B690393039B00951923C1
:104A000001222046FFF73CFB98B101208FE71343BA
:104A1000E0D1FEF74DFD401BB84200D80FB984F835
:104A20003D9023685A695B69C2F34002C3F3802357
:104A3000CCE784F83D9084F83C0078E71A6842F4AB
:104A400000721A606FF480625A615946009519230A
:104A500001222046FFF714FB0028D6D10136564527
:104A60008FD384F83D9084F83C00CEE7020010001C
:104A70000000FFFF704770477047704770477047EE
:104A8000704790F83D2008B5036DD2B283B9C36C6E
:104A90000268012B836C05D1DBB21361036D023315
:104AA000036508BDC3F307231361036D0133F7E703
:104AB000036D012B03D1836C0268DBB2F4E7036D55
:104AC000022B2FD1222A05D10268136843F4807388
:104AD0001360EAE7438D9BB263B1212A0AD1436A8E
:104AE000026813F8011B11614362438D013B9BB2C5
:104AF0004385D6E7438D9BB2002BD2D1212AD0D15A
:104B00000268516821F4E0615160116841F400715C
:104B100011602022036380F83D2080F83E30FFF7CB
:104B2000AFFFBEE703685A69120644BF00221A614C
:104B3000B7E770477047704737B5002301932D4B97
:104B4000806B1B6890F83D2046F2A811B3FBF1F38F
:104B500023214B4301930368D2B2019941BB016CFD
:104B600041F020010164446B0CB10021E163816BD1
:104B700009B10025CD631D6825F480651D60002501
:104B8000458504B1256501B10D65196821F0010164
:104B9000196090F83D10602911D1202380F83D3034
:104BA000002380F83E300364FFF7C5FF03B030BD3B
:104BB00001990139019119688905CED4D3E702F032
:104BC0002802282A0ED1196841F0010119601968DC
:104BD00041F4806119600023036380F83D20FFF7F2
:104BE000A9FFE3E7202380F83D30002380F83E3022
:104BF000F5E700BF4800002010B590F83D2090F880
:104C00003E30102BD9B204460368D2B201D04029FD
:104C100013D1222A11D1196821F400611960596851
:104C200011F4006106D1602A1EBF202284F83D20C5
:104C300084F83E100022226307E002F028012829B0
:104C4000EDD10022226384F83D105A6812F400620C
:104C50004FD05A68606B22F400625A6090F8353089
:104C6000012B374B2BD00365FEF7E9FD50B12268CD
:104C7000606B136823F001031360202384F83D3038
:104C8000036D9847236C19071FBF2268536823F4EC
:104C9000E063536094F83D30226C5207DBB20DD5CF
:104CA000282B0BD1274BE3622022002323632046CD
:104CB00084F83D2084F83E30FFF7E1FE10BDA06B84
:104CC0000365FEF7BCFD0028DCD023685A69510655
:104CD00005D51A69636A1A70636A013363622268D0
:104CE000A06B136823F001031360202384F83D3088
:104CF000C6E794F83D10602915D1202184F83D10B5
:104D000022645A69520605D51A69636A1A70636A81
:104D1000013363622268136823F0010313602046A5
:104D2000FFF709FFAEE75A69500605D51A69636AAD
:104D30001A70636A013363622046FFF7FBFEA1E746
:104D4000394B02080000FFFFF0B5036804465A68BB
:104D5000C66A90F83E0094F83D1010288FB0C5B296
:104D6000C9B202D0402D40F0DD829F69586910F031
:104D7000010F07D1B6F52A0F02D0B6F12A4F51D153
:104D80000FB0F0BD96054DD5E26AB2F52A0F0CD1F1
:104D90000122E26294F83E20402A11D1226D52B9DC
:104DA000626C02F0FE021A61EAE7E26AB2F12A4F8F
:104DB000F0D10822EDE7626C42F00102D2B2F2E7D4
:104DC0002269B2F5804F1AD194F83D20212A626CF5
:104DD00011D102F0FE021A61626B0AB1D26B2AB9DC
:104DE000A26B002ACCD0D26B002AC9D05A6842F4F8
:104DF00000625A60C4E742F00102D2B2EBE7226DD2
:104E000032B9626CD21102F0060242F0F002CAE737
:104E1000226D012AB4D1626CD21102F0060242F076
:104E2000F102C0E7060703D5960501D5626CE4E7F9
:104E3000860740F1E880960540F1E58094F83E1041
:104E4000E26A256B94F83D002228C9B240F0D38075
:104E5000206D40B9402906D101905A6901929B69A1
:104E60000193019B8CE7216D89B92069B0F5404F12
:104E70000DD102915A6902929A690292029A1A68B5
:104E800042F480721A60236D0133236578E7618DE7
:104E900089B251B903915A6903929A690392039AAC
:104EA0001A6842F400721A6019E0618D89B2012912
:104EB00049D112F5803F1BD11A6822F480621A6032
:104EC0005A6812F400620CD01A6822F480621A60E8
:104ED000002204925A6904929B690493049B002364
:104EE000D3E705925A6905929A690592059AD7E720
:104EF000082A1CD0202A1AD0122D0DD1012A16D131
:104F00001A6822F480621A60002206925A69069298
:104F10009B690693069BE2E7102AF1D8824941FA81
:104F200002F2D707ECD41A6842F48062EBE71A6801
:104F300022F480621A60002207925A6907929A69E5
:104F40000792079AACE7618D89B2022930D1102A05
:104F500003D87649D140CE0715D4196821F4806171
:104F60001960196841F40061196059680D0514D57C
:104F7000202A1AD8072A0AD8012A0ED15A6842F4E0
:104F800080525A6009E0196841F48061ECE7A2F1AF
:104F90000801674ACA40D007F0D4002208925A6933
:104FA00008929B690893089B99E712F5803FE4E714
:104FB000196841F4806119605968090510D5202AE3
:104FC00016D8072A06D8012A0AD15A6842F4805214
:104FD0005A6005E0A2F10801554ACA40D207F4D44C
:104FE000002209925A6909929B690993099B76E705
:104FF00012F5803FE8E700220A925A690A929B69FB
:105000000A930A9BBCE67F0740F194805E683605F0
:105010003FF5B6AE070600F004063ED550053CD578
:10502000002E3DD194F83D20258D94F83E10E06A85
:10503000D2B2C9B2C5B9212A18D1082858D020281F
:1050400056D010F5803F53D05A6822F4E0625A607F
:1050500011232363002384F83E30202384F83D305D
:105060002046FFF707FD8BE6212A05D040297FF473
:1050700087AE222A7FF484AE628D92B21AB95A6842
:1050800022F48062B5E694F83E20402A16D12046EC
:105090000FB0BDE8F040FFF7F4BC002E3FF470AE57
:1050A00097057FF56DAE212939D1E16A94F83D204D
:1050B000212A7FF465AE628D92B24AB1626A12F81B
:1050C000011B19616262638D013B9BB2638557E6E8
:1050D00008290DD020290BD011F5803F08D0596840
:1050E00021F4E06159601123236384F83E20B4E782
:1050F0005A6822F4E0625A601A6842F400721A6038
:1051000000232022236384F83D2094F83E2084F875
:105110003E30402A2046A4D1FFF7B2FC30E6402DB5
:105120007FF42EAEB3E700BFEBFFFEFF14000100DB
:105130000101000159680E053FF522AE450600F059
:10514000040140F18680500540F18380002940F041
:10515000838094F83D20222A7FF412AEE06A628DAB
:1051600092B2032A14D91A69636A1A70636A013306
:105170006362638D013B9BB26385638D9BB2032B9E
:105180007FF4FEAD2268536823F480635360F7E533
:10519000E56A022D3FF473AF012A3FF670AF7A4AF9
:1051A0000B91126846F2A811B2FBF1F202EB8202F7
:1051B0000B920B9A013A0B920B99D1B9226C42F0E7
:1051C000200222645A6822F4E0625A601A69636A13
:1051D0001A70636A01336362638D013B9BB263851E
:1051E000202384F83D30204684F83E10FFF7A2FCCF
:1051F000C6E51A6812F40072DBD1196821F48061E7
:105200001960596821F4E06159601969636A19707D
:10521000636A01336362638D013B9BB26385202324
:1052200084F83D3094F83E3084F83E20402B04D181
:1052300022632046FFF77DFCA2E5082801D0202844
:1052400001D1002300E0122323632046FFF713FC63
:1052500096E500293FF494AD92057FF591ADE26AA1
:10526000608D616A80B2042809D15A6822F4806294
:105270005A601B690B70636A0133636223E7608DB8
:1052800080B203280CD15868042A20F4806058604A
:10529000EFD0022AEDD01A6822F480621A60E8E7A3
:1052A000608D80B20228E4D1042A33D007D8012AC5
:1052B00007D0022A2ED0186840F4007004E0102AAB
:1052C000F9D1186820F4806018601B690B70616A5E
:1052D0004B1C6362638D013B9BB2638523681B6932
:1052E0004B70636A216801336362638D013B9BB23B
:1052F00063854B6823F440734B60202384F83D3072
:1053000094F83E30402B4FF0000384F83E3005D136
:1053100023638EE7186840F48060D5E7082A90D0B0
:10532000202A8DE7206C10B35869002587072DD5FA
:1053300096052BD5226C02B19D6994F83D2002F0B0
:105340002802282A16D15A6822F480625A602F0651
:1053500085F004014FF0000354BFA289228B84F82A
:105360003C30C1F380012046FFF788FB08E59D69CA
:105370005869DBE700220C9259690C919B690C93E8
:105380000C9B84F83C20FBE448000020C60640F15A
:10539000B180950540F1AE8094F83D505A6822F4F2
:1053A000E0625A6000220D925A690D921A6842F02A
:1053B00001021A600D9A1A6822F480621A605A6813
:1053C0001005EDB220D505F0F702222A4AD1A06BD4
:1053D0000268526892B26285628D92B21AB1226CF2
:1053E00042F0040222645A6822F400625A60FEF716
:1053F000F7FA012808D0A06B794B0365FEF71FFA76
:1054000010B1A06B036D9847638D9BB213B32368F3
:105410005A69510709D51A69636A1A70636A0133B8
:105420006362638D013B9BB2638523685A695206B0
:1054300009D51A69636A1A70636A01336362638DFE
:10544000013B9BB26385638D9BB21BB1236C43F020
:1054500004032364236C13B320460FB0BDE8F0406F
:10546000FFF7CABB606B0268526892B26285628DB8
:1054700092B21AB1226C42F0040222645A6822F4F9
:1054800000625A60FEF7ACFA0128BDD0606B544B45
:105490000365FEF7D4F90028B6D0606BB2E72A2D79
:1054A00006D12363282384F83D302046FFF7E5FA30
:1054B00094F83D30282B0CD14A4BE3622022002384
:1054C0002363204684F83D2084F83E30FFF7D7FA66
:1054D00056E4236B222B02D0222D7FF451AC002303
:1054E0002022236384F83D2084F83E302046FFF7D5
:1054F000C4FA45E401F0F701212900F0040535D193
:10550000070627D5560525D53DBB94F83D00628D8D
:1055100092B2C0B2002A3FF433AC626A12F8015B67
:105520001D616262628D013A92B26285628D92B2B1
:10553000002A7FF425AC29287FF422AC5A6822F493
:1055400080625A6028232163204684F83D30FFF7AB
:1055500093FA15E4002D3FF413AC95057FF510ACDC
:10556000628D92B2002A3FF40BACA7E5400627D526
:10557000510525D53DBB94F83D20618D89B2D2B24D
:1055800000293FF4FDAB1969636A1970636A01333E
:105590006362638D013B9BB26385638D9BB2002B7D
:1055A0007FF4EEAB2A2A7FF4EBAB2268536823F436
:1055B0008063536022232363282384F83D3095E7DA
:1055C000002D3FF4DDAB92057FF5DAAB628D92B230
:1055D000002A3FF4D5AB1A69636A1A704BE600BF24
:1055E000394B02080000FFFFF8B503685F695E6889
:1055F00090F83E2017F480750446D2B206D016F417
:1056000080751EBF6FF4807159610125B80506D5FC
:10561000F10542BF6FF4007145F00205596178054C
:1056200036D5F10534D5608D94F83D10D4F830C0EE
:10563000202A80B2C9B25FD100285DD101F0F70005
:10564000212804D0282957D1BCF1210F54D194F836
:105650003D20E16A0829D2B201D020292AD1282A86
:1056600028D12E4AE2625A6822F4E0625A606FF44E
:1056700080625A611A6822F480621A600023202234
:105680002363204684F83D2084F83E30FFF7F7F985
:105690003A053FD5F3053DD523686FF4006245F028
:1056A00008055A61236C2B4323642046BDE8F8406B
:1056B000FFF7A2BA212A1BD11849E1622263002117
:1056C000202284F83D2084F83E105A6822F4E062DB
:1056D0005A606FF480625A611A6822F480621A601C
:1056E0005A69100648BF19612046FFF7C5F9CFE790
:1056F0006FF480625A61CBE76FF48061102A5961C0
:1057000045F0040501D0402AC2D11A6842F4007263
:105710001A60BDE7002DC5D1F8BD00BF0000FFFF36
:10572000006C7047F7B5044610B390F895340568DF
:1057300003F0FF021BB980F894240CF04BF803230C
:10574000B5F1A04F84F8953404BF0023A3712068FD
:1057500002F07CFF237C8DF80030251D95E80E00BB
:10576000206802F0B9FE014630B1022384F8953476
:105770000125284603B0F0BD206802F06DFF002827
:10578000F3D1267904F1140301270246C1B28E42F7
:1057900003F124031BD8002104F515730A46C8B28F
:1057A000864203F1240320D8237C8DF8003095E84D
:1057B0000E00206802F0CCFF05460028D5D1012359
:1057C0006074206884F8953403F006FBD1E723F871
:1057D0000A0C43E9072203F8237C03F8241C03F88E
:1057E000202C43F8142C0130D0E743E9072203F8BA
:1057F000232C03F8240C03F8202C43F8142C01313B
:10580000CDE710B50446006894F89434012B15D008
:10581000012384F89434C3685B0606D5637B012BAF
:1058200002BF836B43F48033836302F009FF206877
:1058300003F0C4FA002084F8940410BD0220FCE7B1
:1058400010B590F89424012A04460AD0012280F869
:1058500094244174006803F0A1FA002084F89404B1
:1058600010BD0220FCE770B501F00F0606EBC60480
:1058700011F0800F05464FEA84044FF0240020D039
:1058800000FB065004F11401012429444475C2F3BD
:105890000A028A604A780E700B7102B14E83022BA5
:1058A00004BF00234B7195F89434012B12D00123CF
:1058B000286885F8943403F010F8002085F89404E3
:1058C00070BD00FB065004F515710024294480F8D2
:1058D0005542DCE70220F3E710B5044601F00F0063
:1058E00000EBC00311F0800F4FEA83034FF0240256
:1058F00015D002FB004203F114010123214453752A
:10590000087094F89434012B12D00123206884F895
:10591000943403F021F8002084F8940410BD02FBB5
:10592000004203F515710023214482F85532E7E760
:105930000220F3E770B501F00F05242404FB0501F4
:1059400004FB0504C4E998230023C4F8683284F8F2
:10595000553284F85452164682790068012A01F5BE
:10596000157108BFC4F8706203F0A2F8002070BD82
:1059700001F00F01242303FB0100D0F868027047F7
:1059800070B501F00F05242404FB050104FB050498
:10599000C4E908230023A362012363752575164615
:1059A000827900689A4201F1140108BF266303F06E
:1059B0007FF8002070BD38B5037901F00F05AB42C8
:1059C00004462BD311F0800F4FF024001DD000FBB4
:1059D000054100FB054001231431437501238B7001
:1059E0000D7094F894249A421AD0206884F8943464
:1059F00003F080F92DB9A179206804F29C4203F0EC
:105A000039FA002084F8940438BD00FB01431A469B
:105A100003F51571002382F85532DFE70120F3E723
:105A20000220F1E738B5037901F00F0293420446F2
:105A300029D302EBC20311F0800F4FEA83034FF02A
:105A4000240017D000FB024003F11401012321447C
:105A5000437500258D700A7094F89434012B14D08E
:105A60000123206884F8943403F06FF984F8945487
:105A7000284638BD00FB024003F515710023214480
:105A800080F85532E5E70120F3E70220F1E701F065
:105A90000F0303EBC3030A064FEA83034CBF03F172
:105AA000140103F515710144006802F0ABBF00005A
:105AB0002DE9F04F066889B00446304603F0C8F976
:105AC0000390002840F05881206803F093F90028E3
:105AD00000F05281D6F808382068C3F30D23C4F8CB
